{
  "contractName": "PatientRecords",
  "abi": [
    {
      "anonymous": false,
      "inputs": [
        {
          "indexed": false,
          "internalType": "uint256",
          "name": "id",
          "type": "uint256"
        },
        {
          "indexed": false,
          "internalType": "string",
          "name": "name",
          "type": "string"
        }
      ],
      "name": "PatientAdded",
      "type": "event"
    },
    {
      "anonymous": false,
      "inputs": [
        {
          "indexed": false,
          "internalType": "uint256",
          "name": "id",
          "type": "uint256"
        },
        {
          "indexed": false,
          "internalType": "string",
          "name": "name",
          "type": "string"
        }
      ],
      "name": "PatientUpdated",
      "type": "event"
    },
    {
      "inputs": [
        {
          "internalType": "string",
          "name": "_name",
          "type": "string"
        },
        {
          "internalType": "string",
          "name": "_email",
          "type": "string"
        },
        {
          "internalType": "string",
          "name": "_gender",
          "type": "string"
        },
        {
          "internalType": "string",
          "name": "_bloodGroup",
          "type": "string"
        },
        {
          "internalType": "uint256",
          "name": "_dob",
          "type": "uint256"
        },
        {
          "internalType": "string",
          "name": "_aadhaarCard",
          "type": "string"
        },
        {
          "internalType": "string",
          "name": "_ayushmanCard",
          "type": "string"
        }
      ],
      "name": "addPatient",
      "outputs": [],
      "stateMutability": "nonpayable",
      "type": "function"
    },
    {
      "inputs": [
        {
          "internalType": "uint256",
          "name": "_id",
          "type": "uint256"
        },
        {
          "internalType": "string",
          "name": "_name",
          "type": "string"
        },
        {
          "internalType": "string",
          "name": "_email",
          "type": "string"
        },
        {
          "internalType": "string",
          "name": "_gender",
          "type": "string"
        },
        {
          "internalType": "string",
          "name": "_bloodGroup",
          "type": "string"
        },
        {
          "internalType": "uint256",
          "name": "_dob",
          "type": "uint256"
        },
        {
          "internalType": "string",
          "name": "_aadhaarCard",
          "type": "string"
        },
        {
          "internalType": "string",
          "name": "_ayushmanCard",
          "type": "string"
        }
      ],
      "name": "updatePatient",
      "outputs": [],
      "stateMutability": "nonpayable",
      "type": "function"
    },
    {
      "inputs": [
        {
          "internalType": "uint256",
          "name": "_id",
          "type": "uint256"
        }
      ],
      "name": "getPatient",
      "outputs": [
        {
          "components": [
            {
              "internalType": "uint256",
              "name": "id",
              "type": "uint256"
            },
            {
              "internalType": "string",
              "name": "name",
              "type": "string"
            },
            {
              "internalType": "string",
              "name": "email",
              "type": "string"
            },
            {
              "internalType": "string",
              "name": "gender",
              "type": "string"
            },
            {
              "internalType": "string",
              "name": "bloodGroup",
              "type": "string"
            },
            {
              "internalType": "uint256",
              "name": "dob",
              "type": "uint256"
            },
            {
              "internalType": "string",
              "name": "aadhaarCard",
              "type": "string"
            },
            {
              "internalType": "string",
              "name": "ayushmanCard",
              "type": "string"
            }
          ],
          "internalType": "struct PatientRecords.Patient",
          "name": "",
          "type": "tuple"
        }
      ],
      "stateMutability": "view",
      "type": "function"
    },
    {
      "inputs": [
        {
          "internalType": "address",
          "name": "_doctor",
          "type": "address"
        }
      ],
      "name": "authorizeDoctor",
      "outputs": [],
      "stateMutability": "nonpayable",
      "type": "function"
    },
    {
      "inputs": [
        {
          "internalType": "address",
          "name": "_doctor",
          "type": "address"
        }
      ],
      "name": "revokeDoctor",
      "outputs": [],
      "stateMutability": "nonpayable",
      "type": "function"
    }
  ],
  "bytecode": "0x608060405234801561000f575f80fd5b506115568061001d5f395ff3fe608060405234801561000f575f80fd5b5060043610610055575f3560e01c80630416af271461005957806358c9202c146100755780637d3a679614610091578063bb673ba1146100c1578063f99110a8146100dd575b5f80fd5b610073600480360381019061006e9190610ab2565b6100f9565b005b61008f600480360381019061008a9190610ab2565b6101d9565b005b6100ab60048036038101906100a69190610b10565b6102ba565b6040516100b89190610ca4565b60405180910390f35b6100db60048036038101906100d69190610df0565b6106a2565b005b6100f760048036038101906100f29190610f49565b61083c565b005b60025f3373ffffffffffffffffffffffffffffffffffffffff1673ffffffffffffffffffffffffffffffffffffffff1681526020019081526020015f205f9054906101000a900460ff16610182576040517f08c379a0000000000000000000000000000000000000000000000000000000008152600401610179906110e8565b60405180910390fd5b5f60025f8373ffffffffffffffffffffffffffffffffffffffff1673ffffffffffffffffffffffffffffffffffffffff1681526020019081526020015f205f6101000a81548160ff02191690831515021790555050565b60025f3373ffffffffffffffffffffffffffffffffffffffff1673ffffffffffffffffffffffffffffffffffffffff1681526020019081526020015f205f9054906101000a900460ff16610262576040517f08c379a0000000000000000000000000000000000000000000000000000000008152600401610259906110e8565b60405180910390fd5b600160025f8373ffffffffffffffffffffffffffffffffffffffff1673ffffffffffffffffffffffffffffffffffffffff1681526020019081526020015f205f6101000a81548160ff02191690831515021790555050565b6102c2610a04565b5f805f8481526020019081526020015f20905082815f01541461031a576040517f08c379a000000000000000000000000000000000000000000000000000000000815260040161031190611150565b60405180910390fd5b80604051806101000160405290815f82015481526020016001820180546103409061119b565b80601f016020809104026020016040519081016040528092919081815260200182805461036c9061119b565b80156103b75780601f1061038e576101008083540402835291602001916103b7565b820191905f5260205f20905b81548152906001019060200180831161039a57829003601f168201915b505050505081526020016002820180546103d09061119b565b80601f01602080910402602001604051908101604052809291908181526020018280546103fc9061119b565b80156104475780601f1061041e57610100808354040283529160200191610447565b820191905f5260205f20905b81548152906001019060200180831161042a57829003601f168201915b505050505081526020016003820180546104609061119b565b80601f016020809104026020016040519081016040528092919081815260200182805461048c9061119b565b80156104d75780601f106104ae576101008083540402835291602001916104d7565b820191905f5260205f20905b8154815290600101906020018083116104ba57829003601f168201915b505050505081526020016004820180546104f09061119b565b80601f016020809104026020016040519081016040528092919081815260200182805461051c9061119b565b80156105675780601f1061053e57610100808354040283529160200191610567565b820191905f5260205f20905b81548152906001019060200180831161054a57829003601f168201915b505050505081526020016005820154815260200160068201805461058a9061119b565b80601f01602080910402602001604051908101604052809291908181526020018280546105b69061119b565b80156106015780601f106105d857610100808354040283529160200191610601565b820191905f5260205f20905b8154815290600101906020018083116105e457829003601f168201915b5050505050815260200160078201805461061a9061119b565b80601f01602080910402602001604051908101604052809291908181526020018280546106469061119b565b80156106915780601f1061066857610100808354040283529160200191610691565b820191905f5260205f20905b81548152906001019060200180831161067457829003601f168201915b505050505081525050915050919050565b60025f3373ffffffffffffffffffffffffffffffffffffffff1673ffffffffffffffffffffffffffffffffffffffff1681526020019081526020015f205f9054906101000a900460ff1661072b576040517f08c379a0000000000000000000000000000000000000000000000000000000008152600401610722906110e8565b60405180910390fd5b5f805f8a81526020019081526020015f20905088815f015414610783576040517f08c379a000000000000000000000000000000000000000000000000000000000815260040161077a90611150565b60405180910390fd5b878160010190816107949190611368565b50868160020190816107a69190611368565b50858160030190816107b89190611368565b50848160040190816107ca9190611368565b50838160050181905550828160060190816107e59190611368565b50818160070190816107f79190611368565b507f1058419864553a7736d05f5f0a79e4d2163a98eb45f4bcce071212f00d839fb0898960405161082992919061147e565b60405180910390a1505050505050505050565b60025f3373ffffffffffffffffffffffffffffffffffffffff1673ffffffffffffffffffffffffffffffffffffffff1681526020019081526020015f205f9054906101000a900460ff166108c5576040517f08c379a00000000000000000000000000000000000000000000000000000000081526004016108bc906110e8565b60405180910390fd5b5f60015f8154809291906108d8906114d9565b919050559050604051806101000160405280828152602001898152602001888152602001878152602001868152602001858152602001848152602001838152505f808381526020019081526020015f205f820151815f015560208201518160010190816109459190611368565b50604082015181600201908161095b9190611368565b5060608201518160030190816109719190611368565b5060808201518160040190816109879190611368565b5060a0820151816005015560c08201518160060190816109a79190611368565b5060e08201518160070190816109bd9190611368565b509050507f6b905965000bb5754f6810e4d8a383a339c59b8ffe0680d4e1af63aca2da215581896040516109f292919061147e565b60405180910390a15050505050505050565b6040518061010001604052805f8152602001606081526020016060815260200160608152602001606081526020015f815260200160608152602001606081525090565b5f604051905090565b5f80fd5b5f80fd5b5f73ffffffffffffffffffffffffffffffffffffffff82169050919050565b5f610a8182610a58565b9050919050565b610a9181610a77565b8114610a9b575f80fd5b50565b5f81359050610aac81610a88565b92915050565b5f60208284031215610ac757610ac6610a50565b5b5f610ad484828501610a9e565b91505092915050565b5f819050919050565b610aef81610add565b8114610af9575f80fd5b50565b5f81359050610b0a81610ae6565b92915050565b5f60208284031215610b2557610b24610a50565b5b5f610b3284828501610afc565b91505092915050565b610b4481610add565b82525050565b5f81519050919050565b5f82825260208201905092915050565b5f5b83811015610b81578082015181840152602081019050610b66565b5f8484015250505050565b5f601f19601f8301169050919050565b5f610ba682610b4a565b610bb08185610b54565b9350610bc0818560208601610b64565b610bc981610b8c565b840191505092915050565b5f61010083015f830151610bea5f860182610b3b565b5060208301518482036020860152610c028282610b9c565b91505060408301518482036040860152610c1c8282610b9c565b91505060608301518482036060860152610c368282610b9c565b91505060808301518482036080860152610c508282610b9c565b91505060a0830151610c6560a0860182610b3b565b5060c083015184820360c0860152610c7d8282610b9c565b91505060e083015184820360e0860152610c978282610b9c565b9150508091505092915050565b5f6020820190508181035f830152610cbc8184610bd4565b905092915050565b5f80fd5b5f80fd5b7f4e487b71000000000000000000000000000000000000000000000000000000005f52604160045260245ffd5b610d0282610b8c565b810181811067ffffffffffffffff82111715610d2157610d20610ccc565b5b80604052505050565b5f610d33610a47565b9050610d3f8282610cf9565b919050565b5f67ffffffffffffffff821115610d5e57610d5d610ccc565b5b610d6782610b8c565b9050602081019050919050565b828183375f83830152505050565b5f610d94610d8f84610d44565b610d2a565b905082815260208101848484011115610db057610daf610cc8565b5b610dbb848285610d74565b509392505050565b5f82601f830112610dd757610dd6610cc4565b5b8135610de7848260208601610d82565b91505092915050565b5f805f805f805f80610100898b031215610e0d57610e0c610a50565b5b5f610e1a8b828c01610afc565b985050602089013567ffffffffffffffff811115610e3b57610e3a610a54565b5b610e478b828c01610dc3565b975050604089013567ffffffffffffffff811115610e6857610e67610a54565b5b610e748b828c01610dc3565b965050606089013567ffffffffffffffff811115610e9557610e94610a54565b5b610ea18b828c01610dc3565b955050608089013567ffffffffffffffff811115610ec257610ec1610a54565b5b610ece8b828c01610dc3565b94505060a0610edf8b828c01610afc565b93505060c089013567ffffffffffffffff811115610f0057610eff610a54565b5b610f0c8b828c01610dc3565b92505060e089013567ffffffffffffffff811115610f2d57610f2c610a54565b5b610f398b828c01610dc3565b9150509295985092959890939650565b5f805f805f805f60e0888a031215610f6457610f63610a50565b5b5f88013567ffffffffffffffff811115610f8157610f80610a54565b5b610f8d8a828b01610dc3565b975050602088013567ffffffffffffffff811115610fae57610fad610a54565b5b610fba8a828b01610dc3565b965050604088013567ffffffffffffffff811115610fdb57610fda610a54565b5b610fe78a828b01610dc3565b955050606088013567ffffffffffffffff81111561100857611007610a54565b5b6110148a828b01610dc3565b94505060806110258a828b01610afc565b93505060a088013567ffffffffffffffff81111561104657611045610a54565b5b6110528a828b01610dc3565b92505060c088013567ffffffffffffffff81111561107357611072610a54565b5b61107f8a828b01610dc3565b91505092959891949750929550565b5f82825260208201905092915050565b7f556e617574686f72697a656420616363657373000000000000000000000000005f82015250565b5f6110d260138361108e565b91506110dd8261109e565b602082019050919050565b5f6020820190508181035f8301526110ff816110c6565b9050919050565b7f50617469656e74206e6f7420666f756e640000000000000000000000000000005f82015250565b5f61113a60118361108e565b915061114582611106565b602082019050919050565b5f6020820190508181035f8301526111678161112e565b9050919050565b7f4e487b71000000000000000000000000000000000000000000000000000000005f52602260045260245ffd5b5f60028204905060018216806111b257607f821691505b6020821081036111c5576111c461116e565b5b50919050565b5f819050815f5260205f209050919050565b5f6020601f8301049050919050565b5f82821b905092915050565b5f600883026112277fffffffffffffffffffffffffffffffffffffffffffffffffffffffffffffffff826111ec565b61123186836111ec565b95508019841693508086168417925050509392505050565b5f819050919050565b5f61126c61126761126284610add565b611249565b610add565b9050919050565b5f819050919050565b61128583611252565b61129961129182611273565b8484546111f8565b825550505050565b5f90565b6112ad6112a1565b6112b881848461127c565b505050565b5b818110156112db576112d05f826112a5565b6001810190506112be565b5050565b601f821115611320576112f1816111cb565b6112fa846111dd565b81016020851015611309578190505b61131d611315856111dd565b8301826112bd565b50505b505050565b5f82821c905092915050565b5f6113405f1984600802611325565b1980831691505092915050565b5f6113588383611331565b9150826002028217905092915050565b61137182610b4a565b67ffffffffffffffff81111561138a57611389610ccc565b5b611394825461119b565b61139f8282856112df565b5f60209050601f8311600181146113d0575f84156113be578287015190505b6113c8858261134d565b86555061142f565b601f1984166113de866111cb565b5f5b82811015611405578489015182556001820191506020850194506020810190506113e0565b86831015611422578489015161141e601f891682611331565b8355505b6001600288020188555050505b505050505050565b61144081610add565b82525050565b5f61145082610b4a565b61145a818561108e565b935061146a818560208601610b64565b61147381610b8c565b840191505092915050565b5f6040820190506114915f830185611437565b81810360208301526114a38184611446565b90509392505050565b7f4e487b71000000000000000000000000000000000000000000000000000000005f52601160045260245ffd5b5f6114e382610add565b91507fffffffffffffffffffffffffffffffffffffffffffffffffffffffffffffffff8203611515576115146114ac565b5b60018201905091905056fea264697066735822122063bb2acfb7c901ef900f407ae7cb6a7302e4d420d096d0210b6cb20add7bc15f64736f6c63430008150033",
  "immutableReferences": {},
  "source": "// SPDX-License-Identifier: MIT\r\n\r\npragma solidity ^0.8.0;\r\n\r\ncontract PatientRecords {\r\n    struct Patient {\r\n        uint256 id;\r\n        string name;\r\n        string email;\r\n        string gender;\r\n        string bloodGroup;\r\n        uint256 dob;\r\n        string aadhaarCard;\r\n        string ayushmanCard;\r\n    }\r\n\r\n    mapping(uint256 => Patient) private patients;\r\n    uint256 private nextPatientId;\r\n    mapping(address => bool) private authorizedDoctors;\r\n\r\n    event PatientAdded(uint256 id, string name);\r\n    event PatientUpdated(uint256 id, string name);\r\n\r\n    modifier onlyAuthorizedDoctor() {\r\n        require(authorizedDoctors[msg.sender], \"Unauthorized access\");\r\n        _;\r\n    }\r\n\r\n    function addPatient(\r\n        string memory _name,\r\n        string memory _email,\r\n        string memory _gender,\r\n        string memory _bloodGroup,\r\n        uint256 _dob,\r\n        string memory _aadhaarCard,\r\n        string memory _ayushmanCard\r\n    ) public onlyAuthorizedDoctor {\r\n        uint256 id = nextPatientId++;\r\n        patients[id] = Patient(\r\n            id,\r\n            _name,\r\n            _email,\r\n            _gender,\r\n            _bloodGroup,\r\n            _dob,\r\n            _aadhaarCard,\r\n            _ayushmanCard\r\n        );\r\n        emit PatientAdded(id, _name);\r\n    }\r\n\r\n    function updatePatient(\r\n        uint256 _id,\r\n        string memory _name,\r\n        string memory _email,\r\n        string memory _gender,\r\n        string memory _bloodGroup,\r\n        uint256 _dob,\r\n        string memory _aadhaarCard,\r\n        string memory _ayushmanCard\r\n    ) public onlyAuthorizedDoctor {\r\n        Patient storage patient = patients[_id];\r\n        require(patient.id == _id, \"Patient not found\");\r\n        patient.name = _name;\r\n        patient.email = _email;\r\n        patient.gender = _gender;\r\n        patient.bloodGroup = _bloodGroup;\r\n        patient.dob = _dob;\r\n        patient.aadhaarCard = _aadhaarCard;\r\n        patient.ayushmanCard = _ayushmanCard;\r\n        emit PatientUpdated(_id, _name);\r\n    }\r\n\r\n    function getPatient(uint256 _id) public view returns (Patient memory) {\r\n        Patient storage patient = patients[_id];\r\n        require(patient.id == _id, \"Patient not found\");\r\n        return patient;\r\n    }\r\n\r\n    function authorizeDoctor(address _doctor) public onlyAuthorizedDoctor {\r\n        authorizedDoctors[_doctor] = true;\r\n    }\r\n\r\n    function revokeDoctor(address _doctor) public onlyAuthorizedDoctor {\r\n        authorizedDoctors[_doctor] = false;\r\n    }\r\n}",
  "sourcePath": "C:\\Users\\Shubham Singh\\Documents\\My Docs\\Coding Docs\\Project Files\\MedTechDB\\medtech-dapp\\contracts\\PatientRecords.sol",
  "compiler": {
    "name": "solc",
    "version": "0.8.21+commit.d9974bed.Emscripten.clang"
  },
  "schemaVersion": "3.4.16",
  "updatedAt": "2024-05-05T11:27:35.287Z",
  "devdoc": {
    "kind": "dev",
    "methods": {},
    "version": 1
  },
  "userdoc": {
    "kind": "user",
    "methods": {},
    "version": 1
  }
}